{
    "_format": "hh-sol-artifact-1",
    "contractName": "MultiTokenLottery",
    "sourceName": "contracts/multiTokenLottery.sol",
    "abi": [
        {
            "inputs": [
                {
                    "internalType": "uint256",
                    "name": "_lotteryDuration",
                    "type": "uint256"
                }
            ],
            "stateMutability": "nonpayable",
            "type": "constructor"
        },
        {
            "inputs": [],
            "name": "CannotUpdateDuringLottery",
            "type": "error"
        },
        {
            "inputs": [],
            "name": "InsufficientTokenAllowance",
            "type": "error"
        },
        {
            "inputs": [],
            "name": "InsufficientTokenBalance",
            "type": "error"
        },
        {
            "inputs": [],
            "name": "InvalidTokenAddress",
            "type": "error"
        },
        {
            "inputs": [],
            "name": "LotteryAlreadyActive",
            "type": "error"
        },
        {
            "inputs": [],
            "name": "LotteryEnded",
            "type": "error"
        },
        {
            "inputs": [],
            "name": "LotteryNotActive",
            "type": "error"
        },
        {
            "inputs": [],
            "name": "LotteryStillOngoing",
            "type": "error"
        },
        {
            "inputs": [],
            "name": "NoParticipants",
            "type": "error"
        },
        {
            "inputs": [],
            "name": "NoTokensConfigured",
            "type": "error"
        },
        {
            "inputs": [
                {
                    "internalType": "address",
                    "name": "owner",
                    "type": "address"
                }
            ],
            "name": "OwnableInvalidOwner",
            "type": "error"
        },
        {
            "inputs": [
                {
                    "internalType": "address",
                    "name": "account",
                    "type": "address"
                }
            ],
            "name": "OwnableUnauthorizedAccount",
            "type": "error"
        },
        {
            "inputs": [],
            "name": "PrizeTransferFailed",
            "type": "error"
        },
        {
            "inputs": [],
            "name": "ReentrancyGuardReentrantCall",
            "type": "error"
        },
        {
            "inputs": [],
            "name": "TokenAlreadySupported",
            "type": "error"
        },
        {
            "inputs": [],
            "name": "TokenNotSupported",
            "type": "error"
        },
        {
            "inputs": [],
            "name": "TokenTransferFailed",
            "type": "error"
        },
        {
            "anonymous": false,
            "inputs": [],
            "name": "LotteryCompleted",
            "type": "event"
        },
        {
            "anonymous": false,
            "inputs": [
                {
                    "indexed": false,
                    "internalType": "uint256",
                    "name": "endTime",
                    "type": "uint256"
                }
            ],
            "name": "LotteryStarted",
            "type": "event"
        },
        {
            "anonymous": false,
            "inputs": [
                {
                    "indexed": true,
                    "internalType": "address",
                    "name": "previousOwner",
                    "type": "address"
                },
                {
                    "indexed": true,
                    "internalType": "address",
                    "name": "newOwner",
                    "type": "address"
                }
            ],
            "name": "OwnershipTransferred",
            "type": "event"
        },
        {
            "anonymous": false,
            "inputs": [
                {
                    "indexed": true,
                    "internalType": "address",
                    "name": "buyer",
                    "type": "address"
                },
                {
                    "indexed": true,
                    "internalType": "address",
                    "name": "token",
                    "type": "address"
                },
                {
                    "indexed": false,
                    "internalType": "uint256",
                    "name": "amount",
                    "type": "uint256"
                }
            ],
            "name": "TicketsPurchased",
            "type": "event"
        },
        {
            "anonymous": false,
            "inputs": [
                {
                    "indexed": true,
                    "internalType": "address",
                    "name": "token",
                    "type": "address"
                },
                {
                    "indexed": false,
                    "internalType": "uint256",
                    "name": "ticketPrice",
                    "type": "uint256"
                }
            ],
            "name": "TokenAdded",
            "type": "event"
        },
        {
            "anonymous": false,
            "inputs": [
                {
                    "indexed": true,
                    "internalType": "address",
                    "name": "token",
                    "type": "address"
                }
            ],
            "name": "TokenRemoved",
            "type": "event"
        },
        {
            "anonymous": false,
            "inputs": [
                {
                    "indexed": true,
                    "internalType": "address",
                    "name": "winner",
                    "type": "address"
                },
                {
                    "indexed": true,
                    "internalType": "address",
                    "name": "token",
                    "type": "address"
                },
                {
                    "indexed": false,
                    "internalType": "uint256",
                    "name": "prize",
                    "type": "uint256"
                }
            ],
            "name": "WinnerSelected",
            "type": "event"
        },
        {
            "inputs": [
                {
                    "internalType": "address",
                    "name": "_token",
                    "type": "address"
                },
                {
                    "internalType": "uint256",
                    "name": "_ticketPrice",
                    "type": "uint256"
                }
            ],
            "name": "addToken",
            "outputs": [],
            "stateMutability": "nonpayable",
            "type": "function"
        },
        {
            "inputs": [
                {
                    "internalType": "address",
                    "name": "_token",
                    "type": "address"
                },
                {
                    "internalType": "uint256",
                    "name": "_amount",
                    "type": "uint256"
                }
            ],
            "name": "buyTickets",
            "outputs": [],
            "stateMutability": "nonpayable",
            "type": "function"
        },
        {
            "inputs": [],
            "name": "getParticipantCount",
            "outputs": [
                {
                    "internalType": "uint256",
                    "name": "",
                    "type": "uint256"
                }
            ],
            "stateMutability": "view",
            "type": "function"
        },
        {
            "inputs": [],
            "name": "getTokens",
            "outputs": [
                {
                    "internalType": "address[]",
                    "name": "",
                    "type": "address[]"
                }
            ],
            "stateMutability": "view",
            "type": "function"
        },
        {
            "inputs": [],
            "name": "lotteryActive",
            "outputs": [
                {
                    "internalType": "bool",
                    "name": "",
                    "type": "bool"
                }
            ],
            "stateMutability": "view",
            "type": "function"
        },
        {
            "inputs": [],
            "name": "lotteryDuration",
            "outputs": [
                {
                    "internalType": "uint256",
                    "name": "",
                    "type": "uint256"
                }
            ],
            "stateMutability": "view",
            "type": "function"
        },
        {
            "inputs": [],
            "name": "lotteryEndTime",
            "outputs": [
                {
                    "internalType": "uint256",
                    "name": "",
                    "type": "uint256"
                }
            ],
            "stateMutability": "view",
            "type": "function"
        },
        {
            "inputs": [],
            "name": "owner",
            "outputs": [
                {
                    "internalType": "address",
                    "name": "",
                    "type": "address"
                }
            ],
            "stateMutability": "view",
            "type": "function"
        },
        {
            "inputs": [
                {
                    "internalType": "uint256",
                    "name": "",
                    "type": "uint256"
                }
            ],
            "name": "participants",
            "outputs": [
                {
                    "internalType": "address",
                    "name": "addr",
                    "type": "address"
                },
                {
                    "internalType": "uint256",
                    "name": "tickets",
                    "type": "uint256"
                },
                {
                    "internalType": "address",
                    "name": "tokenUsed",
                    "type": "address"
                }
            ],
            "stateMutability": "view",
            "type": "function"
        },
        {
            "inputs": [
                {
                    "internalType": "address",
                    "name": "_token",
                    "type": "address"
                }
            ],
            "name": "removeToken",
            "outputs": [],
            "stateMutability": "nonpayable",
            "type": "function"
        },
        {
            "inputs": [],
            "name": "renounceOwnership",
            "outputs": [],
            "stateMutability": "nonpayable",
            "type": "function"
        },
        {
            "inputs": [],
            "name": "selectWinners",
            "outputs": [],
            "stateMutability": "nonpayable",
            "type": "function"
        },
        {
            "inputs": [],
            "name": "startLottery",
            "outputs": [],
            "stateMutability": "nonpayable",
            "type": "function"
        },
        {
            "inputs": [
                {
                    "internalType": "address",
                    "name": "",
                    "type": "address"
                }
            ],
            "name": "supportedTokens",
            "outputs": [
                {
                    "internalType": "bool",
                    "name": "isActive",
                    "type": "bool"
                },
                {
                    "internalType": "uint256",
                    "name": "ticketPrice",
                    "type": "uint256"
                },
                {
                    "internalType": "uint256",
                    "name": "totalTickets",
                    "type": "uint256"
                }
            ],
            "stateMutability": "view",
            "type": "function"
        },
        {
            "inputs": [
                {
                    "internalType": "address",
                    "name": "",
                    "type": "address"
                },
                {
                    "internalType": "address",
                    "name": "",
                    "type": "address"
                }
            ],
            "name": "ticketHoldings",
            "outputs": [
                {
                    "internalType": "uint256",
                    "name": "",
                    "type": "uint256"
                }
            ],
            "stateMutability": "view",
            "type": "function"
        },
        {
            "inputs": [
                {
                    "internalType": "uint256",
                    "name": "",
                    "type": "uint256"
                }
            ],
            "name": "tokenList",
            "outputs": [
                {
                    "internalType": "address",
                    "name": "",
                    "type": "address"
                }
            ],
            "stateMutability": "view",
            "type": "function"
        },
        {
            "inputs": [
                {
                    "internalType": "address",
                    "name": "newOwner",
                    "type": "address"
                }
            ],
            "name": "transferOwnership",
            "outputs": [],
            "stateMutability": "nonpayable",
            "type": "function"
        },
        {
            "inputs": [
                {
                    "internalType": "uint256",
                    "name": "_newDuration",
                    "type": "uint256"
                }
            ],
            "name": "updateLotteryDuration",
            "outputs": [],
            "stateMutability": "nonpayable",
            "type": "function"
        },
        {
            "inputs": [
                {
                    "internalType": "address",
                    "name": "_token",
                    "type": "address"
                },
                {
                    "internalType": "uint256",
                    "name": "_newPrice",
                    "type": "uint256"
                }
            ],
            "name": "updateTicketPrice",
            "outputs": [],
            "stateMutability": "nonpayable",
            "type": "function"
        }
    ],
    "bytecode": "0x6080604052348015600f57600080fd5b5060405161162f38038061162f833981016040819052602c9160b7565b60016000553380605657604051631e4fbdf760e01b81526000600482015260240160405180910390fd5b605d816065565b5060025560cf565b600180546001600160a01b038381166001600160a01b0319831681179093556040519116919082907f8be0079c531659141344cd1fd0a4f28419497f9722a3daafe3b4186f6b6457e090600090a35050565b60006020828403121560c857600080fd5b5051919050565b611551806100de6000396000f3fe608060405234801561001057600080fd5b50600436106101215760003560e01c806388f57767116100ad578063ad60572911610071578063ad605729146102a3578063af81c5b9146102ab578063cde8effa146102be578063cef5ab65146102d1578063f2fde38b146102ee57600080fd5b806388f57767146102305780638da5cb5b1461024357806396304946146102685780639ead72221461027b578063aa6ca8081461028e57600080fd5b806343662a7e116100f457806343662a7e146101915780635fa7b5841461019a57806368c4ac26146101ad5780636bef13cc146101fd578063715018a61461022857600080fd5b8063160344e2146101265780631a0de74c146101305780632d97902f1461013857806335c1d34914610154575b600080fd5b61012e610301565b005b61012e6103a4565b61014160025481565b6040519081526020015b60405180910390f35b610167610162366004611339565b6108a2565b604080516001600160a01b039485168152602081019390935292169181019190915260600161014b565b61014160035481565b61012e6101a836600461136e565b6108e0565b6101e06101bb36600461136e565b60056020526000908152604090208054600182015460029092015460ff909116919083565b60408051931515845260208401929092529082015260600161014b565b61014161020b366004611390565b600660209081526000928352604080842090915290825290205481565b61012e610a99565b61012e61023e3660046113c3565b610aad565b6001546001600160a01b03165b6040516001600160a01b03909116815260200161014b565b61012e610276366004611339565b610f89565b610250610289366004611339565b610fba565b610296610fe4565b60405161014b91906113ed565b600754610141565b61012e6102b93660046113c3565b611046565b61012e6102cc3660046113c3565b611176565b6004546102de9060ff1681565b604051901515815260200161014b565b61012e6102fc36600461136e565b6111fa565b61030961123d565b60045460ff161561032d5760405163279bdd3960e01b815260040160405180910390fd5b60085460000361035057604051633f78561160e01b815260040160405180910390fd5b6004805460ff1916600117905560025461036a904261144f565b60038190556040519081527f3d01c4ba0165a3f9c01ca4916efd5efd92dd9ac07569ff74d7047c7cde6683499060200160405180910390a1565b6103ac61123d565b60045460ff166103cf576040516376c313d160e11b815260040160405180910390fd5b6003544210156103f257604051633e32637b60e21b815260040160405180910390fd5b600754600003610415576040516308b6a47360e41b815260040160405180910390fd5b60005b6008548110156107315760006008828154811061043757610437611468565b60009182526020808320909101546001600160a01b0316808352600590915260409091205490915060ff1661046c5750610729565b6001600160a01b03811660009081526005602052604081206002015490819003610497575050610729565b600081426104a660014361147e565b6040805160208101939093529040908201524460608083019190915285901b6bffffffffffffffffffffffff191660808201526094810184905260b4016040516020818303038152906040528051906020012060001c6105069190611491565b9050600080805b6007548110156105cc57856001600160a01b03166007828154811061053457610534611468565b60009182526020909120600260039092020101546001600160a01b0316036105c4576007818154811061056957610569611468565b90600052602060002090600302016001015483610586919061144f565b9250828410156105c457600781815481106105a3576105a3611468565b60009182526020909120600390910201546001600160a01b031691506105cc565b60010161050d565b506040516370a0823160e01b815230600482015285906000906001600160a01b038316906370a0823190602401602060405180830381865afa158015610616573d6000803e3d6000fd5b505050506040513d601f19601f8201168201806040525081019061063a91906114b3565b60405163a9059cbb60e01b81526001600160a01b0385811660048301526024820183905291925060009184169063a9059cbb906044016020604051808303816000875af115801561068f573d6000803e3d6000fd5b505050506040513d601f19601f820116820180604052508101906106b391906114cc565b9050806106d35760405163880a149160e01b815260040160405180910390fd5b876001600160a01b0316846001600160a01b03167fd28fd066cbe6a30a425b0a60222cebaba3ee406c3c8f21a2f56ec6b68a6db7ab8460405161071891815260200190565b60405180910390a350505050505050505b600101610418565b506004805460ff19169055610748600760006112e6565b60005b60085481101561087657600560006008838154811061076c5761076c611468565b60009182526020808320909101546001600160a01b0316835282019290925260400190205460ff161561086e57600060056000600884815481106107b2576107b2611468565b60009182526020808320909101546001600160a01b031683528201929092526040018120600201919091555b60075481101561086c5760066000600884815481106107ff576107ff611468565b60009182526020808320909101546001600160a01b031683528201929092526040018120600780549192918490811061083a5761083a611468565b600091825260208083206003909202909101546001600160a01b031683528201929092526040018120556001016107de565b505b60010161074b565b506040517fc3e88827fe411f4f47642ffec5f91c3e83d44b4b11db2f8c2248b4d1c95267ca90600090a1565b600781815481106108b257600080fd5b60009182526020909120600390910201805460018201546002909201546001600160a01b0391821693501683565b6108e861123d565b6001600160a01b03811660009081526005602052604090205460ff1661092157604051633dd1b30560e01b815260040160405180910390fd5b60045460ff16156109455760405163279bdd3960e01b815260040160405180910390fd5b6001600160a01b0381166000908152600560205260408120805460ff191690555b600854811015610a6157816001600160a01b03166008828154811061098d5761098d611468565b6000918252602090912001546001600160a01b031603610a5957600880546109b79060019061147e565b815481106109c7576109c7611468565b600091825260209091200154600880546001600160a01b0390921691839081106109f3576109f3611468565b9060005260206000200160006101000a8154816001600160a01b0302191690836001600160a01b031602179055506008805480610a3257610a326114ee565b600082815260209020810160001990810180546001600160a01b0319169055019055610a61565b600101610966565b506040516001600160a01b038216907f4c910b69fe65a61f7531b9c5042b2329ca7179c77290aa7e2eb3afa3c8511fd390600090a250565b610aa161123d565b610aab600061126a565b565b610ab56112bc565b60045460ff16610ad8576040516376c313d160e11b815260040160405180910390fd5b6003544210610afa57604051639c89a6ed60e01b815260040160405180910390fd5b6001600160a01b03821660009081526005602052604090205460ff16610b3357604051633dd1b30560e01b815260040160405180910390fd5b6001600160a01b03821660009081526005602052604081206001810154909190610b5e908490611504565b6040516370a0823160e01b8152336004820152909150849082906001600160a01b038316906370a0823190602401602060405180830381865afa158015610ba9573d6000803e3d6000fd5b505050506040513d601f19601f82011682018060405250810190610bcd91906114b3565b1015610bec57604051637222ae5760e11b815260040160405180910390fd5b604051636eb1769f60e11b815233600482015230602482015282906001600160a01b0383169063dd62ed3e90604401602060405180830381865afa158015610c38573d6000803e3d6000fd5b505050506040513d601f19601f82011682018060405250810190610c5c91906114b3565b1015610c7b5760405163a085b77b60e01b815260040160405180910390fd5b6040516323b872dd60e01b8152336004820152306024820152604481018390526000906001600160a01b038316906323b872dd906064016020604051808303816000875af1158015610cd1573d6000803e3d6000fd5b505050506040513d601f19601f82011682018060405250810190610cf591906114cc565b905080610d155760405163022e258160e11b815260040160405180910390fd5b6001600160a01b03861660009081526006602090815260408083203384529091528120549003610e0e5760408051606081018252338152602081018781526001600160a01b0389811693830193845260078054600181018255600091909152925160039093027fa66cc928b5edb82af9bd49922954155ab7b0942694bea4ce44661d9a8736c688810180549483166001600160a01b031995861617905591517fa66cc928b5edb82af9bd49922954155ab7b0942694bea4ce44661d9a8736c68983015592517fa66cc928b5edb82af9bd49922954155ab7b0942694bea4ce44661d9a8736c68a9091018054919093169116179055610ee4565b60005b600754811015610ee257336001600160a01b031660078281548110610e3857610e38611468565b60009182526020909120600390910201546001600160a01b0316148015610e965750866001600160a01b031660078281548110610e7757610e77611468565b60009182526020909120600260039092020101546001600160a01b0316145b15610eda578560078281548110610eaf57610eaf611468565b90600052602060002090600302016001016000828254610ecf919061144f565b90915550610ee29050565b600101610e11565b505b6001600160a01b038616600090815260066020908152604080832033845290915281208054879290610f1790849061144f565b9250508190555084846002016000828254610f32919061144f565b90915550506040518581526001600160a01b0387169033907ff8f293dd0ad555bb1cb0ee58b8c7053f0e6899cdfe4daf61bb44749e28c1fa169060200160405180910390a350505050610f856001600055565b5050565b610f9161123d565b60045460ff1615610fb55760405163fa160bff60e01b815260040160405180910390fd5b600255565b60088181548110610fca57600080fd5b6000918252602090912001546001600160a01b0316905081565b6060600880548060200260200160405190810160405280929190818152602001828054801561103c57602002820191906000526020600020905b81546001600160a01b0316815260019091019060200180831161101e575b5050505050905090565b61104e61123d565b6001600160a01b03821661107557604051630f58058360e11b815260040160405180910390fd5b6001600160a01b03821660009081526005602052604090205460ff16156110af5760405163c78e82ad60e01b815260040160405180910390fd5b604080516060810182526001808252602080830185815260008486018181526001600160a01b038916808352600585528783209651875460ff1916901515178755925186860155516002909501949094556008805493840181559093527ff3f7a9fe364faab93b216da50a3214154f22a0a2b415b23a84c8169e8b636ee390910180546001600160a01b03191683179055915183815290917ff4c563a3ea86ff1f4275e8c207df0375a51963f2b831b7bf4da8be938d92876c910160405180910390a25050565b61117e61123d565b6001600160a01b03821660009081526005602052604090205460ff166111b757604051633dd1b30560e01b815260040160405180910390fd5b60045460ff16156111db5760405163fa160bff60e01b815260040160405180910390fd5b6001600160a01b03909116600090815260056020526040902060010155565b61120261123d565b6001600160a01b03811661123157604051631e4fbdf760e01b8152600060048201526024015b60405180910390fd5b61123a8161126a565b50565b6001546001600160a01b03163314610aab5760405163118cdaa760e01b8152336004820152602401611228565b600180546001600160a01b038381166001600160a01b0319831681179093556040519116919082907f8be0079c531659141344cd1fd0a4f28419497f9722a3daafe3b4186f6b6457e090600090a35050565b6002600054036112df57604051633ee5aeb560e01b815260040160405180910390fd5b6002600055565b508054600082556003029060005260206000209081019061123a91905b808211156113355780546001600160a01b03199081168255600060018301556002820180549091169055600301611303565b5090565b60006020828403121561134b57600080fd5b5035919050565b80356001600160a01b038116811461136957600080fd5b919050565b60006020828403121561138057600080fd5b61138982611352565b9392505050565b600080604083850312156113a357600080fd5b6113ac83611352565b91506113ba60208401611352565b90509250929050565b600080604083850312156113d657600080fd5b6113df83611352565b946020939093013593505050565b602080825282518282018190526000918401906040840190835b8181101561142e5783516001600160a01b0316835260209384019390920191600101611407565b509095945050505050565b634e487b7160e01b600052601160045260246000fd5b8082018082111561146257611462611439565b92915050565b634e487b7160e01b600052603260045260246000fd5b8181038181111561146257611462611439565b6000826114ae57634e487b7160e01b600052601260045260246000fd5b500690565b6000602082840312156114c557600080fd5b5051919050565b6000602082840312156114de57600080fd5b8151801515811461138957600080fd5b634e487b7160e01b600052603160045260246000fd5b80820281158282048414176114625761146261143956fea26469706673582212201b1bfa42544910307e1bd104400cc5f98a010a9e4c56c05b68d46dc2885b205264736f6c634300081c0033",
    "linkReferences": {},
    "deployedLinkReferences": {}
}