{
  "_format": "hh-sol-artifact-1",
  "contractName": "MultiTokenLottery",
  "sourceName": "contracts/mutiTokenLottery.sol",
  "abi": [
    {
      "inputs": [
        {
          "internalType": "uint256",
          "name": "_lotteryDuration",
          "type": "uint256"
        }
      ],
      "stateMutability": "nonpayable",
      "type": "constructor"
    },
    {
      "inputs": [
        {
          "internalType": "address",
          "name": "admin",
          "type": "address"
        }
      ],
      "name": "AdminAlreadyExists",
      "type": "error"
    },
    {
      "inputs": [
        {
          "internalType": "address",
          "name": "admin",
          "type": "address"
        }
      ],
      "name": "AdminDoesNotExist",
      "type": "error"
    },
    {
      "inputs": [
        {
          "internalType": "address",
          "name": "token",
          "type": "address"
        },
        {
          "internalType": "uint256",
          "name": "required",
          "type": "uint256"
        },
        {
          "internalType": "uint256",
          "name": "allowed",
          "type": "uint256"
        }
      ],
      "name": "InsufficientTokenAllowance",
      "type": "error"
    },
    {
      "inputs": [
        {
          "internalType": "address",
          "name": "token",
          "type": "address"
        },
        {
          "internalType": "uint256",
          "name": "required",
          "type": "uint256"
        },
        {
          "internalType": "uint256",
          "name": "available",
          "type": "uint256"
        }
      ],
      "name": "InsufficientTokenBalance",
      "type": "error"
    },
    {
      "inputs": [],
      "name": "InvalidDuration",
      "type": "error"
    },
    {
      "inputs": [],
      "name": "InvalidTicketAmount",
      "type": "error"
    },
    {
      "inputs": [
        {
          "internalType": "address",
          "name": "token",
          "type": "address"
        }
      ],
      "name": "InvalidTokenAddress",
      "type": "error"
    },
    {
      "inputs": [],
      "name": "LotteryAlreadyActive",
      "type": "error"
    },
    {
      "inputs": [],
      "name": "LotteryEnded",
      "type": "error"
    },
    {
      "inputs": [],
      "name": "LotteryNotActive",
      "type": "error"
    },
    {
      "inputs": [
        {
          "internalType": "uint256",
          "name": "currentTime",
          "type": "uint256"
        },
        {
          "internalType": "uint256",
          "name": "endTime",
          "type": "uint256"
        }
      ],
      "name": "LotteryStillOngoing",
      "type": "error"
    },
    {
      "inputs": [],
      "name": "NoParticipants",
      "type": "error"
    },
    {
      "inputs": [],
      "name": "NoTokensConfigured",
      "type": "error"
    },
    {
      "inputs": [
        {
          "internalType": "address",
          "name": "owner",
          "type": "address"
        }
      ],
      "name": "OwnableInvalidOwner",
      "type": "error"
    },
    {
      "inputs": [
        {
          "internalType": "address",
          "name": "account",
          "type": "address"
        }
      ],
      "name": "OwnableUnauthorizedAccount",
      "type": "error"
    },
    {
      "inputs": [
        {
          "internalType": "address",
          "name": "token",
          "type": "address"
        },
        {
          "internalType": "address",
          "name": "winner",
          "type": "address"
        }
      ],
      "name": "PrizeTransferFailed",
      "type": "error"
    },
    {
      "inputs": [],
      "name": "ReentrancyGuardReentrantCall",
      "type": "error"
    },
    {
      "inputs": [
        {
          "internalType": "address",
          "name": "token",
          "type": "address"
        }
      ],
      "name": "TokenAlreadySupported",
      "type": "error"
    },
    {
      "inputs": [
        {
          "internalType": "address",
          "name": "token",
          "type": "address"
        }
      ],
      "name": "TokenNotSupported",
      "type": "error"
    },
    {
      "inputs": [
        {
          "internalType": "address",
          "name": "token",
          "type": "address"
        }
      ],
      "name": "TokenTransferFailed",
      "type": "error"
    },
    {
      "inputs": [],
      "name": "Unauthorized",
      "type": "error"
    },
    {
      "anonymous": false,
      "inputs": [
        {
          "indexed": true,
          "internalType": "address",
          "name": "admin",
          "type": "address"
        }
      ],
      "name": "AdminAdded",
      "type": "event"
    },
    {
      "anonymous": false,
      "inputs": [
        {
          "indexed": true,
          "internalType": "address",
          "name": "admin",
          "type": "address"
        }
      ],
      "name": "AdminRemoved",
      "type": "event"
    },
    {
      "anonymous": false,
      "inputs": [
        {
          "indexed": false,
          "internalType": "uint256",
          "name": "newDuration",
          "type": "uint256"
        }
      ],
      "name": "DurationUpdated",
      "type": "event"
    },
    {
      "anonymous": false,
      "inputs": [],
      "name": "LotteryCompleted",
      "type": "event"
    },
    {
      "anonymous": false,
      "inputs": [
        {
          "indexed": false,
          "internalType": "uint256",
          "name": "endTime",
          "type": "uint256"
        }
      ],
      "name": "LotteryStarted",
      "type": "event"
    },
    {
      "anonymous": false,
      "inputs": [
        {
          "indexed": true,
          "internalType": "address",
          "name": "previousOwner",
          "type": "address"
        },
        {
          "indexed": true,
          "internalType": "address",
          "name": "newOwner",
          "type": "address"
        }
      ],
      "name": "OwnershipTransferred",
      "type": "event"
    },
    {
      "anonymous": false,
      "inputs": [
        {
          "indexed": true,
          "internalType": "address",
          "name": "token",
          "type": "address"
        },
        {
          "indexed": false,
          "internalType": "uint256",
          "name": "newPrice",
          "type": "uint256"
        }
      ],
      "name": "TicketPriceUpdated",
      "type": "event"
    },
    {
      "anonymous": false,
      "inputs": [
        {
          "indexed": true,
          "internalType": "address",
          "name": "buyer",
          "type": "address"
        },
        {
          "indexed": true,
          "internalType": "address",
          "name": "token",
          "type": "address"
        },
        {
          "indexed": false,
          "internalType": "uint256",
          "name": "amount",
          "type": "uint256"
        }
      ],
      "name": "TicketsPurchased",
      "type": "event"
    },
    {
      "anonymous": false,
      "inputs": [
        {
          "indexed": true,
          "internalType": "address",
          "name": "token",
          "type": "address"
        },
        {
          "indexed": false,
          "internalType": "uint256",
          "name": "ticketPrice",
          "type": "uint256"
        }
      ],
      "name": "TokenAdded",
      "type": "event"
    },
    {
      "anonymous": false,
      "inputs": [
        {
          "indexed": true,
          "internalType": "address",
          "name": "token",
          "type": "address"
        }
      ],
      "name": "TokenRemoved",
      "type": "event"
    },
    {
      "anonymous": false,
      "inputs": [
        {
          "indexed": true,
          "internalType": "address",
          "name": "winner",
          "type": "address"
        },
        {
          "indexed": true,
          "internalType": "address",
          "name": "token",
          "type": "address"
        },
        {
          "indexed": false,
          "internalType": "uint256",
          "name": "prize",
          "type": "uint256"
        }
      ],
      "name": "WinnerSelected",
      "type": "event"
    },
    {
      "inputs": [
        {
          "internalType": "address",
          "name": "_admin",
          "type": "address"
        }
      ],
      "name": "addAdmin",
      "outputs": [],
      "stateMutability": "nonpayable",
      "type": "function"
    },
    {
      "inputs": [
        {
          "internalType": "address",
          "name": "_token",
          "type": "address"
        },
        {
          "internalType": "uint256",
          "name": "_ticketPrice",
          "type": "uint256"
        }
      ],
      "name": "addToken",
      "outputs": [],
      "stateMutability": "nonpayable",
      "type": "function"
    },
    {
      "inputs": [
        {
          "internalType": "address",
          "name": "",
          "type": "address"
        }
      ],
      "name": "admins",
      "outputs": [
        {
          "internalType": "bool",
          "name": "",
          "type": "bool"
        }
      ],
      "stateMutability": "view",
      "type": "function"
    },
    {
      "inputs": [
        {
          "internalType": "address",
          "name": "_token",
          "type": "address"
        },
        {
          "internalType": "uint256",
          "name": "_amount",
          "type": "uint256"
        }
      ],
      "name": "buyTickets",
      "outputs": [],
      "stateMutability": "nonpayable",
      "type": "function"
    },
    {
      "inputs": [],
      "name": "getParticipantCount",
      "outputs": [
        {
          "internalType": "uint256",
          "name": "",
          "type": "uint256"
        }
      ],
      "stateMutability": "view",
      "type": "function"
    },
    {
      "inputs": [],
      "name": "getTokens",
      "outputs": [
        {
          "internalType": "address[]",
          "name": "",
          "type": "address[]"
        }
      ],
      "stateMutability": "view",
      "type": "function"
    },
    {
      "inputs": [
        {
          "internalType": "address",
          "name": "_admin",
          "type": "address"
        }
      ],
      "name": "isAdmin",
      "outputs": [
        {
          "internalType": "bool",
          "name": "",
          "type": "bool"
        }
      ],
      "stateMutability": "view",
      "type": "function"
    },
    {
      "inputs": [],
      "name": "lotteryActive",
      "outputs": [
        {
          "internalType": "bool",
          "name": "",
          "type": "bool"
        }
      ],
      "stateMutability": "view",
      "type": "function"
    },
    {
      "inputs": [],
      "name": "lotteryDuration",
      "outputs": [
        {
          "internalType": "uint256",
          "name": "",
          "type": "uint256"
        }
      ],
      "stateMutability": "view",
      "type": "function"
    },
    {
      "inputs": [],
      "name": "lotteryEndTime",
      "outputs": [
        {
          "internalType": "uint256",
          "name": "",
          "type": "uint256"
        }
      ],
      "stateMutability": "view",
      "type": "function"
    },
    {
      "inputs": [],
      "name": "owner",
      "outputs": [
        {
          "internalType": "address",
          "name": "",
          "type": "address"
        }
      ],
      "stateMutability": "view",
      "type": "function"
    },
    {
      "inputs": [
        {
          "internalType": "uint256",
          "name": "",
          "type": "uint256"
        }
      ],
      "name": "participants",
      "outputs": [
        {
          "internalType": "address",
          "name": "addr",
          "type": "address"
        },
        {
          "internalType": "uint256",
          "name": "tickets",
          "type": "uint256"
        },
        {
          "internalType": "address",
          "name": "tokenUsed",
          "type": "address"
        }
      ],
      "stateMutability": "view",
      "type": "function"
    },
    {
      "inputs": [
        {
          "internalType": "address",
          "name": "_admin",
          "type": "address"
        }
      ],
      "name": "removeAdmin",
      "outputs": [],
      "stateMutability": "nonpayable",
      "type": "function"
    },
    {
      "inputs": [
        {
          "internalType": "address",
          "name": "_token",
          "type": "address"
        }
      ],
      "name": "removeToken",
      "outputs": [],
      "stateMutability": "nonpayable",
      "type": "function"
    },
    {
      "inputs": [],
      "name": "renounceOwnership",
      "outputs": [],
      "stateMutability": "nonpayable",
      "type": "function"
    },
    {
      "inputs": [],
      "name": "selectWinners",
      "outputs": [],
      "stateMutability": "nonpayable",
      "type": "function"
    },
    {
      "inputs": [],
      "name": "startLottery",
      "outputs": [],
      "stateMutability": "nonpayable",
      "type": "function"
    },
    {
      "inputs": [
        {
          "internalType": "address",
          "name": "",
          "type": "address"
        }
      ],
      "name": "supportedTokens",
      "outputs": [
        {
          "internalType": "bool",
          "name": "isActive",
          "type": "bool"
        },
        {
          "internalType": "uint256",
          "name": "ticketPrice",
          "type": "uint256"
        },
        {
          "internalType": "uint256",
          "name": "totalTickets",
          "type": "uint256"
        }
      ],
      "stateMutability": "view",
      "type": "function"
    },
    {
      "inputs": [
        {
          "internalType": "address",
          "name": "",
          "type": "address"
        },
        {
          "internalType": "address",
          "name": "",
          "type": "address"
        }
      ],
      "name": "ticketHoldings",
      "outputs": [
        {
          "internalType": "uint256",
          "name": "",
          "type": "uint256"
        }
      ],
      "stateMutability": "view",
      "type": "function"
    },
    {
      "inputs": [
        {
          "internalType": "uint256",
          "name": "",
          "type": "uint256"
        }
      ],
      "name": "tokenList",
      "outputs": [
        {
          "internalType": "address",
          "name": "",
          "type": "address"
        }
      ],
      "stateMutability": "view",
      "type": "function"
    },
    {
      "inputs": [
        {
          "internalType": "address",
          "name": "newOwner",
          "type": "address"
        }
      ],
      "name": "transferOwnership",
      "outputs": [],
      "stateMutability": "nonpayable",
      "type": "function"
    },
    {
      "inputs": [
        {
          "internalType": "uint256",
          "name": "_newDuration",
          "type": "uint256"
        }
      ],
      "name": "updateLotteryDuration",
      "outputs": [],
      "stateMutability": "nonpayable",
      "type": "function"
    },
    {
      "inputs": [
        {
          "internalType": "address",
          "name": "_token",
          "type": "address"
        },
        {
          "internalType": "uint256",
          "name": "_newPrice",
          "type": "uint256"
        }
      ],
      "name": "updateTicketPrice",
      "outputs": [],
      "stateMutability": "nonpayable",
      "type": "function"
    }
  ],
  "bytecode": "0x608060405234801561001057600080fd5b50604051611acd380380611acd83398101604081905261002f916100df565b6001600055338061005a57604051631e4fbdf760e01b81526000600482015260240160405180910390fd5b6100638161008d565b508060000361008557604051637616640160e01b815260040160405180910390fd5b6002556100f8565b600180546001600160a01b038381166001600160a01b0319831681179093556040519116919082907f8be0079c531659141344cd1fd0a4f28419497f9722a3daafe3b4186f6b6457e090600090a35050565b6000602082840312156100f157600080fd5b5051919050565b6119c6806101076000396000f3fe608060405234801561001057600080fd5b506004361061014d5760003560e01c806370480275116100c3578063aa6ca8081161007c578063aa6ca8081461033f578063ad60572914610354578063af81c5b91461035c578063cde8effa1461036f578063cef5ab6514610382578063f2fde38b1461038f57600080fd5b806370480275146102c6578063715018a6146102d957806388f57767146102e15780638da5cb5b146102f457806396304946146103195780639ead72221461032c57600080fd5b806335c1d3491161011557806335c1d349146101cf578063429b62e51461020c57806343662a7e1461022f5780635fa7b5841461023857806368c4ac261461024b5780636bef13cc1461029b57600080fd5b8063160344e2146101525780631785f53c1461015c5780631a0de74c1461016f57806324d7806c146101775780632d97902f146101b8575b600080fd5b61015a6103a2565b005b61015a61016a3660046117d0565b610485565b61015a61051f565b6101a36101853660046117d0565b6001600160a01b031660009081526007602052604090205460ff1690565b60405190151581526020015b60405180910390f35b6101c160025481565b6040519081526020016101af565b6101e26101dd3660046117f2565b610700565b604080516001600160a01b03948516815260208101939093529216918101919091526060016101af565b6101a361021a3660046117d0565b60076020526000908152604090205460ff1681565b6101c160035481565b61015a6102463660046117d0565b61073e565b61027e6102593660046117d0565b60056020526000908152604090208054600182015460029092015460ff909116919083565b6040805193151584526020840192909252908201526060016101af565b6101c16102a936600461180b565b600660209081526000928352604080842090915290825290205481565b61015a6102d43660046117d0565b610942565b61015a6109db565b61015a6102ef36600461183e565b6109ed565b6001546001600160a01b03165b6040516001600160a01b0390911681526020016101af565b61015a6103273660046117f2565b610d26565b61030161033a3660046117f2565b610dca565b610347610df4565b6040516101af9190611868565b6008546101c1565b61015a61036a36600461183e565b610e56565b61015a61037d36600461183e565b610ffd565b6004546101a39060ff1681565b61015a61039d3660046117d0565b6110f9565b6001546001600160a01b031633148015906103cd57503360009081526007602052604090205460ff16155b156103ea576040516282b42960e81b815260040160405180910390fd5b60045460ff161561040e5760405163279bdd3960e01b815260040160405180910390fd5b60095460000361043157604051633f78561160e01b815260040160405180910390fd5b6004805460ff1916600117905560025461044b90426118ca565b60038190556040519081527f3d01c4ba0165a3f9c01ca4916efd5efd92dd9ac07569ff74d7047c7cde6683499060200160405180910390a1565b61048d611137565b6001600160a01b03811660009081526007602052604090205460ff166104d657604051630ed580c760e41b81526001600160a01b03821660048201526024015b60405180910390fd5b6001600160a01b038116600081815260076020526040808220805460ff19169055517fa3b62bc36326052d97ea62d63c3d60308ed4c3ea8ac079dd8499f1e9c4f80c0f9190a250565b6001546001600160a01b0316331480159061054a57503360009081526007602052604090205460ff16155b15610567576040516282b42960e81b815260040160405180910390fd5b60045460ff1661058a576040516376c313d160e11b815260040160405180910390fd5b6003544210156105ba5760035460405163384b255760e21b815242600482015260248101919091526044016104cd565b6008546000036105dd576040516308b6a47360e41b815260040160405180910390fd5b60005b6009548110156106f5576000600982815481106105ff576105ff6118dd565b60009182526020808320909101546001600160a01b0316808352600590915260409091205490915060ff1661063457506106ed565b6001600160a01b0381166000908152600560205260408120600201549081900361065f5750506106ed565b6000814261066e6001436118f3565b6040805160208101939093529040908201524460608083019190915285901b6bffffffffffffffffffffffff191660808201526094810184905260b4016040516020818303038152906040528051906020012060001c6106ce9190611906565b905060006106dc8483611164565b90506106e88482611238565b505050505b6001016105e0565b506106fe6113a5565b565b6008818154811061071057600080fd5b60009182526020909120600390910201805460018201546002909201546001600160a01b0391821693501683565b6001546001600160a01b0316331480159061076957503360009081526007602052604090205460ff16155b15610786576040516282b42960e81b815260040160405180910390fd5b6001600160a01b03811660009081526005602052604090205460ff166107ca576040516306439c6b60e01b81526001600160a01b03821660048201526024016104cd565b60045460ff16156107ee5760405163279bdd3960e01b815260040160405180910390fd5b6001600160a01b0381166000908152600560205260408120805460ff191690555b60095481101561090a57816001600160a01b031660098281548110610836576108366118dd565b6000918252602090912001546001600160a01b0316036109025760098054610860906001906118f3565b81548110610870576108706118dd565b600091825260209091200154600980546001600160a01b03909216918390811061089c5761089c6118dd565b9060005260206000200160006101000a8154816001600160a01b0302191690836001600160a01b0316021790555060098054806108db576108db611928565b600082815260209020810160001990810180546001600160a01b031916905501905561090a565b60010161080f565b506040516001600160a01b038216907f4c910b69fe65a61f7531b9c5042b2329ca7179c77290aa7e2eb3afa3c8511fd390600090a250565b61094a611137565b6001600160a01b03811660009081526007602052604090205460ff161561098f5760405163f646f2cd60e01b81526001600160a01b03821660048201526024016104cd565b6001600160a01b038116600081815260076020526040808220805460ff19166001179055517f44d6d25963f097ad14f29f06854a01f575648a1ef82f30e562ccd3889717e3399190a250565b6109e3611137565b6106fe60006114ce565b6109f5611520565b80600003610a155760405162fab39f60e31b815260040160405180910390fd5b60045460ff16610a38576040516376c313d160e11b815260040160405180910390fd5b6003544210610a5a57604051639c89a6ed60e01b815260040160405180910390fd5b6001600160a01b03821660009081526005602052604090205460ff16610a9e576040516306439c6b60e01b81526001600160a01b03831660048201526024016104cd565b6001600160a01b03821660009081526005602052604081206001810154909190610ac990849061193e565b6040516370a0823160e01b815233600482015290915084906000906001600160a01b038316906370a0823190602401602060405180830381865afa158015610b15573d6000803e3d6000fd5b505050506040513d601f19601f82011682018060405250810190610b399190611955565b604051636eb1769f60e11b81523360048201523060248201529091506000906001600160a01b0384169063dd62ed3e90604401602060405180830381865afa158015610b89573d6000803e3d6000fd5b505050506040513d601f19601f82011682018060405250810190610bad9190611955565b905083821015610be95760405163ebd6ced960e01b81526001600160a01b038816600482015260248101859052604481018390526064016104cd565b83811015610c2357604051632909934d60e21b81526001600160a01b038816600482015260248101859052604481018290526064016104cd565b6040516323b872dd60e01b8152336004820152306024820152604481018590526000906001600160a01b038516906323b872dd906064016020604051808303816000875af1158015610c79573d6000803e3d6000fd5b505050506040513d601f19601f82011682018060405250810190610c9d919061196e565b905080610cc857604051632b596cb760e01b81526001600160a01b03891660048201526024016104cd565b610cd2888861154a565b6040518781526001600160a01b0389169033907ff8f293dd0ad555bb1cb0ee58b8c7053f0e6899cdfe4daf61bb44749e28c1fa169060200160405180910390a3505050505050610d226001600055565b5050565b6001546001600160a01b03163314801590610d5157503360009081526007602052604090205460ff16155b15610d6e576040516282b42960e81b815260040160405180910390fd5b80600003610d8f57604051637616640160e01b815260040160405180910390fd5b60028190556040518181527f91abcc2d6823e3a3f11d31b208dd3065d2c6a791f1c7c9fe96a42ce12897eac59060200160405180910390a150565b60098181548110610dda57600080fd5b6000918252602090912001546001600160a01b0316905081565b60606009805480602002602001604051908101604052809291908181526020018280548015610e4c57602002820191906000526020600020905b81546001600160a01b03168152600190910190602001808311610e2e575b5050505050905090565b6001546001600160a01b03163314801590610e8157503360009081526007602052604090205460ff16155b15610e9e576040516282b42960e81b815260040160405180910390fd5b6001600160a01b038216610ed057604051637330680360e01b81526001600160a01b03831660048201526024016104cd565b80600003610ef05760405162fab39f60e31b815260040160405180910390fd5b6001600160a01b03821660009081526005602052604090205460ff1615610f3557604051632efbf13f60e21b81526001600160a01b03831660048201526024016104cd565b604080516060810182526001808252602080830185815260008486018181526001600160a01b038916808352600585528783209651875460ff1916901515178755925186860155516002909501949094556009805493840181559093527f6e1540171b6c0c960b71a7020d9f60077f6af931a8bbf590da0223dacf75c7af90910180546001600160a01b03191683179055915183815290917ff4c563a3ea86ff1f4275e8c207df0375a51963f2b831b7bf4da8be938d92876c91015b60405180910390a25050565b6001546001600160a01b0316331480159061102857503360009081526007602052604090205460ff16155b15611045576040516282b42960e81b815260040160405180910390fd5b806000036110655760405162fab39f60e31b815260040160405180910390fd5b6001600160a01b03821660009081526005602052604090205460ff166110a9576040516306439c6b60e01b81526001600160a01b03831660048201526024016104cd565b6001600160a01b03821660008181526005602052604090819020600101839055517f08d226a6598830fecf54629c16f22ed3ec13650cc4e2828b4211655f9148747b90610ff19084815260200190565b611101611137565b6001600160a01b03811661112b57604051631e4fbdf760e01b8152600060048201526024016104cd565b611134816114ce565b50565b6001546001600160a01b031633146106fe5760405163118cdaa760e01b81523360048201526024016104cd565b600080805b60085481101561122b57846001600160a01b031660088281548110611190576111906118dd565b60009182526020909120600260039092020101546001600160a01b03160361122357600881815481106111c5576111c56118dd565b906000526020600020906003020160010154826111e291906118ca565b91508184101561122357600881815481106111ff576111ff6118dd565b60009182526020909120600390910201546001600160a01b03169250611232915050565b600101611169565b5060009150505b92915050565b6040516370a0823160e01b815230600482015282906000906001600160a01b038316906370a0823190602401602060405180830381865afa158015611281573d6000803e3d6000fd5b505050506040513d601f19601f820116820180604052508101906112a59190611955565b60405163a9059cbb60e01b81526001600160a01b0385811660048301526024820183905291925060009184169063a9059cbb906044016020604051808303816000875af11580156112fa573d6000803e3d6000fd5b505050506040513d601f19601f8201168201806040525081019061131e919061196e565b905080611351576040516301eae75960e51b81526001600160a01b038087166004830152851660248201526044016104cd565b846001600160a01b0316846001600160a01b03167fd28fd066cbe6a30a425b0a60222cebaba3ee406c3c8f21a2f56ec6b68a6db7ab8460405161139691815260200190565b60405180910390a35050505050565b6004805460ff1916905560005b600954811015611496576000600982815481106113d1576113d16118dd565b60009182526020808320909101546001600160a01b0316808352600590915260409091205490915060ff161561148d576001600160a01b03811660009081526005602052604081206002018190555b60085481101561148b576001600160a01b03821660009081526006602052604081206008805491929184908110611459576114596118dd565b600091825260208083206003909202909101546001600160a01b03168352820192909252604001812055600101611420565b505b506001016113b2565b506114a360086000611761565b6040517fc3e88827fe411f4f47642ffec5f91c3e83d44b4b11db2f8c2248b4d1c95267ca90600090a1565b600180546001600160a01b038381166001600160a01b0319831681179093556040519116919082907f8be0079c531659141344cd1fd0a4f28419497f9722a3daafe3b4186f6b6457e090600090a35050565b60026000540361154357604051633ee5aeb560e01b815260040160405180910390fd5b6002600055565b6000805b60085481101561162357336001600160a01b031660088281548110611575576115756118dd565b60009182526020909120600390910201546001600160a01b03161480156115d35750836001600160a01b0316600882815481106115b4576115b46118dd565b60009182526020909120600260039092020101546001600160a01b0316145b1561161b5782600882815481106115ec576115ec6118dd565b9060005260206000209060030201600101600082825461160c91906118ca565b90915550600192506116239050565b60010161154e565b50806116f45760408051606081018252338152602081018481526001600160a01b0386811693830193845260088054600181018255600091909152925160039093027ff3f7a9fe364faab93b216da50a3214154f22a0a2b415b23a84c8169e8b636ee3810180549483166001600160a01b031995861617905591517ff3f7a9fe364faab93b216da50a3214154f22a0a2b415b23a84c8169e8b636ee483015592517ff3f7a9fe364faab93b216da50a3214154f22a0a2b415b23a84c8169e8b636ee590910180549190931691161790555b6001600160a01b0383166000908152600660209081526040808320338452909152812080548492906117279084906118ca565b90915550506001600160a01b038316600090815260056020526040812060020180548492906117579084906118ca565b9091555050505050565b508054600082556003029060005260206000209081019061113491905b808211156117b05780546001600160a01b0319908116825560006001830155600282018054909116905560030161177e565b5090565b80356001600160a01b03811681146117cb57600080fd5b919050565b6000602082840312156117e257600080fd5b6117eb826117b4565b9392505050565b60006020828403121561180457600080fd5b5035919050565b6000806040838503121561181e57600080fd5b611827836117b4565b9150611835602084016117b4565b90509250929050565b6000806040838503121561185157600080fd5b61185a836117b4565b946020939093013593505050565b602080825282518282018190526000918401906040840190835b818110156118a95783516001600160a01b0316835260209384019390920191600101611882565b509095945050505050565b634e487b7160e01b600052601160045260246000fd5b80820180821115611232576112326118b4565b634e487b7160e01b600052603260045260246000fd5b81810381811115611232576112326118b4565b60008261192357634e487b7160e01b600052601260045260246000fd5b500690565b634e487b7160e01b600052603160045260246000fd5b8082028115828204841417611232576112326118b4565b60006020828403121561196757600080fd5b5051919050565b60006020828403121561198057600080fd5b815180151581146117eb57600080fdfea264697066735822122061bfcdc9ba7a1f8c5a36fc0f206f013c6abb119a288928bfe97a304a498c558064736f6c634300081c0033",
  "linkReferences": {},
  "deployedLinkReferences": {}
}